{
  "contractName": "EcosystemContract",
  "abi": [
    {
      "constant": true,
      "inputs": [],
      "name": "creator",
      "outputs": [
        {
          "name": "",
          "type": "address"
        }
      ],
      "payable": false,
      "stateMutability": "view",
      "type": "function"
    },
    {
      "constant": true,
      "inputs": [
        {
          "name": "",
          "type": "uint256"
        }
      ],
      "name": "unlockDates",
      "outputs": [
        {
          "name": "",
          "type": "uint256"
        }
      ],
      "payable": false,
      "stateMutability": "view",
      "type": "function"
    },
    {
      "constant": true,
      "inputs": [],
      "name": "counter",
      "outputs": [
        {
          "name": "",
          "type": "uint256"
        }
      ],
      "payable": false,
      "stateMutability": "view",
      "type": "function"
    },
    {
      "constant": true,
      "inputs": [],
      "name": "amountToRelease",
      "outputs": [
        {
          "name": "",
          "type": "uint256"
        }
      ],
      "payable": false,
      "stateMutability": "view",
      "type": "function"
    },
    {
      "constant": true,
      "inputs": [],
      "name": "contractName",
      "outputs": [
        {
          "name": "",
          "type": "string"
        }
      ],
      "payable": false,
      "stateMutability": "view",
      "type": "function"
    },
    {
      "constant": true,
      "inputs": [],
      "name": "owner",
      "outputs": [
        {
          "name": "",
          "type": "address"
        }
      ],
      "payable": false,
      "stateMutability": "view",
      "type": "function"
    },
    {
      "constant": true,
      "inputs": [],
      "name": "createdAt",
      "outputs": [
        {
          "name": "",
          "type": "uint256"
        }
      ],
      "payable": false,
      "stateMutability": "view",
      "type": "function"
    },
    {
      "inputs": [
        {
          "name": "_creator",
          "type": "address"
        },
        {
          "name": "_owner",
          "type": "address"
        },
        {
          "name": "_unlockDate",
          "type": "uint256[]"
        },
        {
          "name": "_contractName",
          "type": "string"
        }
      ],
      "payable": true,
      "stateMutability": "payable",
      "type": "constructor"
    },
    {
      "payable": true,
      "stateMutability": "payable",
      "type": "fallback"
    },
    {
      "anonymous": false,
      "inputs": [
        {
          "indexed": false,
          "name": "from",
          "type": "address"
        },
        {
          "indexed": false,
          "name": "amount",
          "type": "uint256"
        }
      ],
      "name": "Received",
      "type": "event"
    },
    {
      "anonymous": false,
      "inputs": [
        {
          "indexed": false,
          "name": "to",
          "type": "address"
        },
        {
          "indexed": false,
          "name": "amount",
          "type": "uint256"
        }
      ],
      "name": "Withdrew",
      "type": "event"
    },
    {
      "anonymous": false,
      "inputs": [
        {
          "indexed": false,
          "name": "tokenContract",
          "type": "address"
        },
        {
          "indexed": false,
          "name": "to",
          "type": "address"
        },
        {
          "indexed": false,
          "name": "amount",
          "type": "uint256"
        }
      ],
      "name": "WithdrewTokens",
      "type": "event"
    },
    {
      "constant": false,
      "inputs": [
        {
          "name": "_address",
          "type": "address"
        }
      ],
      "name": "changeBeneficiary",
      "outputs": [],
      "payable": false,
      "stateMutability": "nonpayable",
      "type": "function"
    },
    {
      "constant": false,
      "inputs": [
        {
          "name": "_tokenContract",
          "type": "address"
        }
      ],
      "name": "emergencyToken",
      "outputs": [],
      "payable": false,
      "stateMutability": "nonpayable",
      "type": "function"
    },
    {
      "constant": false,
      "inputs": [],
      "name": "emergency",
      "outputs": [],
      "payable": false,
      "stateMutability": "nonpayable",
      "type": "function"
    },
    {
      "constant": false,
      "inputs": [
        {
          "name": "_tokenContract",
          "type": "address"
        }
      ],
      "name": "withdrawTokens",
      "outputs": [],
      "payable": false,
      "stateMutability": "nonpayable",
      "type": "function"
    },
    {
      "constant": true,
      "inputs": [],
      "name": "info",
      "outputs": [
        {
          "name": "",
          "type": "address"
        },
        {
          "name": "",
          "type": "address"
        },
        {
          "name": "",
          "type": "uint256[]"
        },
        {
          "name": "",
          "type": "uint256"
        },
        {
          "name": "",
          "type": "uint256"
        }
      ],
      "payable": false,
      "stateMutability": "view",
      "type": "function"
    }
  ],
  "bytecode": "0x608060405260006005556aa56fa5b99019a5c8000000600655604051610a0c380380610a0c833981016040908152815160208084015192840151606085015160008054600160a060020a03808716600160a060020a0319928316179092556001805492881692909116919091179055908501805193959093910191610089916002918501906100ab565b504260035580516100a19060049060208401906100f6565b5050505050610180565b8280548282559060005260206000209081019282156100e6579160200282015b828111156100e65782518255916020019190600101906100cb565b506100f2929150610163565b5090565b828054600181600116156101000203166002900490600052602060002090601f016020900481019282601f1061013757805160ff19168380011785556100e6565b828001600101855582156100e657918201828111156100e65782518255916020019190600101906100cb565b61017d91905b808211156100f25760008155600101610169565b90565b61087d8061018f6000396000f3006080604052600436106100b95763ffffffff7c010000000000000000000000000000000000000000000000000000000060003504166302d05d3f81146100f557806327dd941e146101265780632c2aab9d14610150578063370158ea1461017357806349df728c1461021c57806361bc221a1461023d5780636ea923141461025257806375d0c0dc146102675780638da5cb5b146102f1578063caa6fea414610306578063cf09e0d01461031b578063dc07065714610330575b6040805133815234602082015281517f88a5966d370b9919b20f3e2c13ff65706f196a4e32cc2c12bf57088f88525874929181900390910190a1005b34801561010157600080fd5b5061010a610351565b60408051600160a060020a039092168252519081900360200190f35b34801561013257600080fd5b5061013e600435610360565b60408051918252519081900360200190f35b34801561015c57600080fd5b50610171600160a060020a036004351661037f565b005b34801561017f57600080fd5b50610188610516565b6040518086600160a060020a0316600160a060020a0316815260200185600160a060020a0316600160a060020a0316815260200180602001848152602001838152602001828103825285818151815260200191508051906020019060200280838360005b838110156102045781810151838201526020016101ec565b50505050905001965050505050505060405180910390f35b34801561022857600080fd5b50610171600160a060020a03600435166105a1565b34801561024957600080fd5b5061013e6106da565b34801561025e57600080fd5b5061013e6106e0565b34801561027357600080fd5b5061027c6106e6565b6040805160208082528351818301528351919283929083019185019080838360005b838110156102b657818101518382015260200161029e565b50505050905090810190601f1680156102e35780820380516001836020036101000a031916815260200191505b509250505060405180910390f35b3480156102fd57600080fd5b5061010a610774565b34801561031257600080fd5b50610171610783565b34801561032757600080fd5b5061013e610805565b34801561033c57600080fd5b50610171600160a060020a036004351661080b565b600054600160a060020a031681565b600280548290811061036e57fe5b600091825260209091200154905081565b600080548190600160a060020a0316331461039957600080fd5b604080517f70a082310000000000000000000000000000000000000000000000000000000081523060048201529051849350600160a060020a038416916370a082319160248083019260209291908290030181600087803b1580156103fd57600080fd5b505af1158015610411573d6000803e3d6000fd5b505050506040513d602081101561042757600080fd5b505160008054604080517fa9059cbb000000000000000000000000000000000000000000000000000000008152600160a060020a0392831660048201526024810185905290519394509085169263a9059cbb92604480840193602093929083900390910190829087803b15801561049d57600080fd5b505af11580156104b1573d6000803e3d6000fd5b505050506040513d60208110156104c757600080fd5b505060408051600160a060020a038516815233602082015280820183905290517fa04c965e7d289704527a948915777d68bb4530fb4b08aa935fb958c0b7901ab99181900360600190a1505050565b600080546001546003546002805460408051602080840282018101909252828152879660609688968796600160a060020a0393841696929093169492939092303192859183018282801561058957602002820191906000526020600020905b815481526020019060010190808311610575575b50505050509250945094509450945094509091929394565b60008054600160a060020a031633146105b957600080fd5b60026005548154811015156105ca57fe5b906000526020600020015442101515156105e357600080fd5b50600154600654604080517fa9059cbb000000000000000000000000000000000000000000000000000000008152600160a060020a039384166004820152602481019290925251839283169163a9059cbb9160448083019260209291908290030181600087803b15801561065657600080fd5b505af115801561066a573d6000803e3d6000fd5b505050506040513d602081101561068057600080fd5b505060058054600101905560065460408051600160a060020a038516815233602082015280820192909252517fa04c965e7d289704527a948915777d68bb4530fb4b08aa935fb958c0b7901ab99181900360600190a15050565b60055481565b60065481565b6004805460408051602060026001851615610100026000190190941693909304601f8101849004840282018401909252818152929183018282801561076c5780601f106107415761010080835404028352916020019161076c565b820191906000526020600020905b81548152906001019060200180831161074f57829003601f168201915b505050505081565b600154600160a060020a031681565b600054600160a060020a0316331461079a57600080fd5b6040513390303180156108fc02916000818181858888f193505050501580156107c7573d6000803e3d6000fd5b50604080513381523031602082015281517fb244b9a17ad633c6e83b7983ee04320484956a68ddbe96a0b70dfca1cf19d723929181900390910190a1565b60035481565b600054600160a060020a0316331461082257600080fd5b6001805473ffffffffffffffffffffffffffffffffffffffff1916600160a060020a03929092169190911790555600a165627a7a72305820bc7bd80c742312d006b94644016149edd03621e9a504cd65a1ddd5916b3381900029",
  "source": "pragma solidity ^ 0.4.24;\r\n\r\nlibrary SafeMath {\r\n    /**\r\n     * @dev Multiplies two numbers, reverts on overflow.\r\n     */\r\n    function mul(uint256 a, uint256 b) internal pure returns(uint256) {\r\n        // Gas optimization: this is cheaper than requiring 'a' not being zero, but the\r\n        // benefit is lost if 'b' is also tested.\r\n        // See: https://github.com/OpenZeppelin/openzeppelin-solidity/pull/522\r\n        if (a == 0) {\r\n            return 0;\r\n        }\r\n\r\n        uint256 c = a * b;\r\n        require(c / a == b);\r\n\r\n        return c;\r\n    }\r\n\r\n    /**\r\n     * @dev Integer division of two numbers truncating the quotient, reverts on division by zero.\r\n     */\r\n    function div(uint256 a, uint256 b) internal pure returns(uint256) {\r\n        // Solidity only automatically asserts when dividing by 0\r\n        require(b > 0);\r\n        uint256 c = a / b;\r\n        // assert(a == b * c + a % b); // There is no case in which this doesn't hold\r\n\r\n        return c;\r\n    }\r\n\r\n    /**\r\n     * @dev Subtracts two numbers, reverts on overflow (i.e. if subtrahend is greater than minuend).\r\n     */\r\n    function sub(uint256 a, uint256 b) internal pure returns(uint256) {\r\n        require(b <= a);\r\n        uint256 c = a - b;\r\n\r\n        return c;\r\n    }\r\n\r\n    /**\r\n     * @dev Adds two numbers, reverts on overflow.\r\n     */\r\n    function add(uint256 a, uint256 b) internal pure returns(uint256) {\r\n        uint256 c = a + b;\r\n        require(c >= a);\r\n\r\n        return c;\r\n    }\r\n\r\n    /**\r\n     * @dev Divides two numbers and returns the remainder (unsigned integer modulo),\r\n     * reverts when dividing by zero.\r\n     */\r\n    function mod(uint256 a, uint256 b) internal pure returns(uint256) {\r\n        require(b != 0);\r\n        return a % b;\r\n    }\r\n}\r\n/**\r\n * @title ERC20\r\n * @dev see https://github.com/ethereum/EIPs/issues/20\r\n */\r\ncontract ERC20 {\r\n\r\n    uint256 public totalSupply;\r\n\r\n    function balanceOf(address who) public view returns(uint256);\r\n\r\n    function transfer(address to, uint256 value) public returns(bool);\r\n\r\n    function allowance(address owner, address spender) public view returns(uint256);\r\n\r\n    function transferFrom(address from, address to, uint256 value) public returns(bool);\r\n\r\n    function approve(address spender, uint256 value) public returns(bool);\r\n\r\n    event Approval(address indexed owner, address indexed spender, uint256 value);\r\n    event Transfer(address indexed from, address indexed to, uint256 value);\r\n}\r\n\r\ncontract EcosystemContract {\r\n    using SafeMath\r\n    for uint256;\r\n\r\n    address public creator;\r\n    address public owner;\r\n    uint256[] public unlockDates;\r\n    uint256 public createdAt;\r\n    string public contractName;\r\n    uint public counter = 0;\r\n    uint256 public amountToRelease = 200000000 ether;\r\n\r\n    modifier onlyOwner {\r\n        require(msg.sender == owner);\r\n        _;\r\n    }\r\n\r\n    modifier onlyCreator {\r\n        require(msg.sender == creator);\r\n        _;\r\n    }\r\n\r\n    constructor(\r\n        address _creator,\r\n        address _owner,\r\n        uint256[] _unlockDate,\r\n        string _contractName\r\n    ) public payable {\r\n        creator = _creator;\r\n        owner = _owner;\r\n        unlockDates = _unlockDate;\r\n        createdAt = now;\r\n        contractName = _contractName;\r\n    }\r\n\r\n    // keep all the ether sent to this address\r\n    function() payable public {\r\n        emit Received(msg.sender, msg.value);\r\n    }\r\n    \r\n    function changeBeneficiary(address _address) onlyCreator public {\r\n        owner = _address;\r\n        \r\n    }\r\n\r\n    function emergencyToken(address _tokenContract) onlyCreator public {\r\n\r\n        ERC20 token = ERC20(_tokenContract);\r\n        uint256 tokenBalance = token.balanceOf(this);\r\n        token.transfer(creator, tokenBalance);\r\n        emit WithdrewTokens(_tokenContract, msg.sender, tokenBalance);\r\n    }\r\n\r\n    function emergency() onlyCreator public {\r\n\r\n        msg.sender.transfer(address(this).balance);\r\n        emit Withdrew(msg.sender, address(this).balance);\r\n    }\r\n\r\n    // callable by owner only, after specified time, only for Tokens implementing ERC20\r\n    function withdrawTokens(address _tokenContract) onlyCreator public {\r\n        require(now >= unlockDates[counter]);\r\n        ERC20 token = ERC20(_tokenContract);\r\n        token.transfer(owner, amountToRelease);\r\n        counter++;\r\n        emit WithdrewTokens(_tokenContract, msg.sender, amountToRelease);\r\n    }\r\n\r\n    function info() public view returns(address, address, uint256[], uint256, uint256) {\r\n        return (creator, owner, unlockDates, createdAt, address(this).balance);\r\n    }\r\n\r\n    event Received(address from, uint256 amount);\r\n    event Withdrew(address to, uint256 amount);\r\n    event WithdrewTokens(address tokenContract, address to, uint256 amount);\r\n}",
  "sourcePath": "C:\\Users\\zigaf\\Documents\\rvxwallet\\RVX-TokenContract\\contracts\\EcosystemLockContract.sol",
  "compiler": {
    "name": "solc",
    "version": "0.4.24+commit.e67f0147.Emscripten.clang"
  },
  "schemaVersion": "3.0.23",
  "updatedAt": "2020-04-30T14:38:56.992Z",
  "networkType": "ethereum",
  "devdoc": {
    "methods": {}
  },
  "userdoc": {
    "methods": {}
  }
}