{
  "contractName": "TimeLockedWalletFactory",
  "abi": [
    {
      "payable": false,
      "stateMutability": "nonpayable",
      "type": "fallback"
    },
    {
      "anonymous": false,
      "inputs": [
        {
          "indexed": false,
          "name": "wallet",
          "type": "address"
        },
        {
          "indexed": false,
          "name": "from",
          "type": "address"
        },
        {
          "indexed": false,
          "name": "to",
          "type": "address"
        },
        {
          "indexed": false,
          "name": "createdAt",
          "type": "uint256"
        },
        {
          "indexed": false,
          "name": "unlockDate",
          "type": "uint256"
        },
        {
          "indexed": false,
          "name": "amount",
          "type": "uint256"
        }
      ],
      "name": "Created",
      "type": "event"
    },
    {
      "constant": true,
      "inputs": [
        {
          "name": "_user",
          "type": "address"
        }
      ],
      "name": "getWallets",
      "outputs": [
        {
          "name": "",
          "type": "address[]"
        }
      ],
      "payable": false,
      "stateMutability": "view",
      "type": "function"
    },
    {
      "constant": false,
      "inputs": [
        {
          "name": "_owner",
          "type": "address"
        },
        {
          "name": "_unlockDate",
          "type": "uint256"
        }
      ],
      "name": "newTimeLockedWallet",
      "outputs": [
        {
          "name": "wallet",
          "type": "address"
        }
      ],
      "payable": true,
      "stateMutability": "payable",
      "type": "function"
    }
  ],
  "bytecode": "0x608060405234801561001057600080fd5b5061081c806100206000396000f30060806040526004361061004b5763ffffffff7c01000000000000000000000000000000000000000000000000000000006000350416630a9ef927811461005d578063422c29a414610090575b34801561005757600080fd5b50600080fd5b610074600160a060020a0360043516602435610101565b60408051600160a060020a039092168252519081900360200190f35b34801561009c57600080fd5b506100b1600160a060020a0360043516610282565b60408051602080825283518183015283519192839290830191858101910280838360005b838110156100ed5781810151838201526020016100d5565b505050509050019250505060405180910390f35b600033838361010e6102f6565b600160a060020a039384168152919092166020820152604080820192909252905190819003606001906000f08015801561014c573d6000803e3d6000fd5b503360008181526020818152604082208054600181018255908352912001805473ffffffffffffffffffffffffffffffffffffffff1916600160a060020a0384811691909117909155919250908416146101ea57600160a060020a0383811660009081526020818152604082208054600181018255908352912001805473ffffffffffffffffffffffffffffffffffffffff19169183169190911790555b604051600160a060020a038216903480156108fc02916000818181858888f1935050505015801561021f573d6000803e3d6000fd5b5060408051600160a060020a038084168252336020830152851681830152426060820152608081018490523460a082015290517f14d5db8c1f746c7adcbcd13cf8945dd2ac6ad58be52380b8c4933c876f76e1bf9181900360c00190a192915050565b600160a060020a038116600090815260208181526040918290208054835181840281018401909452808452606093928301828280156102ea57602002820191906000526020600020905b8154600160a060020a031681526001909101906020018083116102cc575b50505050509050919050565b6040516104ea80610307833901905600608060405234801561001057600080fd5b506040516060806104ea83398101604090815281516020830151919092015160008054600160a060020a03948516600160a060020a0319918216179091556001805494909316931692909217905560025542600355610476806100746000396000f3006080604052600436106100825763ffffffff7c010000000000000000000000000000000000000000000000000000000060003504166302d05d3f81146100be578063370158ea146100ef5780633ccfd60b1461013b57806349df728c1461015257806369ac5721146101735780638da5cb5b1461019a578063cf09e0d0146101af575b6040805133815234602082015281517f88a5966d370b9919b20f3e2c13ff65706f196a4e32cc2c12bf57088f88525874929181900390910190a1005b3480156100ca57600080fd5b506100d36101c4565b60408051600160a060020a039092168252519081900360200190f35b3480156100fb57600080fd5b506101046101d3565b60408051600160a060020a039687168152949095166020850152838501929092526060830152608082015290519081900360a00190f35b34801561014757600080fd5b506101506101f8565b005b34801561015e57600080fd5b50610150600160a060020a0360043516610289565b34801561017f57600080fd5b5061018861042f565b60408051918252519081900360200190f35b3480156101a657600080fd5b506100d3610435565b3480156101bb57600080fd5b50610188610444565b600054600160a060020a031681565b600054600154600254600354600160a060020a03938416949390921692909190303190565b600154600160a060020a0316331461020f57600080fd5b60025442101561021e57600080fd5b6040513390303180156108fc02916000818181858888f1935050505015801561024b573d6000803e3d6000fd5b50604080513381523031602082015281517fb244b9a17ad633c6e83b7983ee04320484956a68ddbe96a0b70dfca1cf19d723929181900390910190a1565b6001546000908190600160a060020a031633146102a557600080fd5b6002544210156102b457600080fd5b604080517f70a082310000000000000000000000000000000000000000000000000000000081523060048201529051849350600160a060020a038416916370a082319160248083019260209291908290030181600087803b15801561031857600080fd5b505af115801561032c573d6000803e3d6000fd5b505050506040513d602081101561034257600080fd5b5051600154604080517fa9059cbb000000000000000000000000000000000000000000000000000000008152600160a060020a0392831660048201526024810184905290519293509084169163a9059cbb916044808201926020929091908290030181600087803b1580156103b657600080fd5b505af11580156103ca573d6000803e3d6000fd5b505050506040513d60208110156103e057600080fd5b505060408051600160a060020a038516815233602082015280820183905290517fa04c965e7d289704527a948915777d68bb4530fb4b08aa935fb958c0b7901ab99181900360600190a1505050565b60025481565b600154600160a060020a031681565b600354815600a165627a7a7230582092469b485a7aadf3faf1a85368c5b7473c93b6c743bcfb21a876643bafe7752e0029a165627a7a72305820bb6ebade6655eb21ecc01a3b758087b644a903de9bda2fe9c61a75a159e544ab0029",
  "source": "pragma solidity ^0.4.24;\r\n\r\nimport \"./TimeLockedWallet.sol\";\r\n\r\ncontract TimeLockedWalletFactory {\r\n \r\n    mapping(address => address[]) wallets;\r\n\r\n    function getWallets(address _user) \r\n        public\r\n        view\r\n        returns(address[])\r\n    {\r\n        return wallets[_user];\r\n    }\r\n\r\n    function newTimeLockedWallet(address _owner, uint256 _unlockDate)\r\n        payable\r\n        public\r\n        returns(address wallet)\r\n    {\r\n        // Create new wallet.\r\n        wallet = new TimeLockedWallet(msg.sender, _owner, _unlockDate);\r\n        \r\n        // Add wallet to sender's wallets.\r\n        wallets[msg.sender].push(wallet);\r\n\r\n        // If owner is the same as sender then add wallet to sender's wallets too.\r\n        if(msg.sender != _owner){\r\n            wallets[_owner].push(wallet);\r\n        }\r\n\r\n        // Send ether from this transaction to the created contract.\r\n        wallet.transfer(msg.value);\r\n\r\n        // Emit event.\r\n        Created(wallet, msg.sender, _owner, now, _unlockDate, msg.value);\r\n    }\r\n\r\n    // Prevents accidental sending of ether to the factory\r\n    function () public {\r\n        revert();\r\n    }\r\n\r\n    event Created(address wallet, address from, address to, uint256 createdAt, uint256 unlockDate, uint256 amount);\r\n}\r\n",
  "sourcePath": "C:\\Users\\zigaf\\Documents\\rvxwallet\\time-locked-wallets\\contracts\\TimeLockedWalletFactory.sol",
  "compiler": {
    "name": "solc",
    "version": "0.4.24+commit.e67f0147.Emscripten.clang"
  },
  "schemaVersion": "3.0.23",
  "updatedAt": "2020-04-16T11:46:04.931Z",
  "devdoc": {
    "methods": {}
  },
  "userdoc": {
    "methods": {}
  }
}