{
  "contractName": "TimeLockedWallet",
  "abi": [
    {
      "constant": true,
      "inputs": [],
      "name": "creator",
      "outputs": [
        {
          "name": "",
          "type": "address"
        }
      ],
      "payable": false,
      "stateMutability": "view",
      "type": "function"
    },
    {
      "constant": true,
      "inputs": [],
      "name": "walletFive",
      "outputs": [
        {
          "name": "",
          "type": "address"
        }
      ],
      "payable": false,
      "stateMutability": "view",
      "type": "function"
    },
    {
      "constant": true,
      "inputs": [],
      "name": "walletOne",
      "outputs": [
        {
          "name": "",
          "type": "address"
        }
      ],
      "payable": false,
      "stateMutability": "view",
      "type": "function"
    },
    {
      "constant": true,
      "inputs": [],
      "name": "walletThree",
      "outputs": [
        {
          "name": "",
          "type": "address"
        }
      ],
      "payable": false,
      "stateMutability": "view",
      "type": "function"
    },
    {
      "constant": true,
      "inputs": [],
      "name": "walletTwo",
      "outputs": [
        {
          "name": "",
          "type": "address"
        }
      ],
      "payable": false,
      "stateMutability": "view",
      "type": "function"
    },
    {
      "constant": true,
      "inputs": [
        {
          "name": "",
          "type": "uint256"
        }
      ],
      "name": "unlockDates",
      "outputs": [
        {
          "name": "",
          "type": "uint256"
        }
      ],
      "payable": false,
      "stateMutability": "view",
      "type": "function"
    },
    {
      "constant": true,
      "inputs": [],
      "name": "counterSix",
      "outputs": [
        {
          "name": "",
          "type": "uint256"
        }
      ],
      "payable": false,
      "stateMutability": "view",
      "type": "function"
    },
    {
      "constant": true,
      "inputs": [],
      "name": "secondSix",
      "outputs": [
        {
          "name": "",
          "type": "uint256"
        }
      ],
      "payable": false,
      "stateMutability": "view",
      "type": "function"
    },
    {
      "constant": true,
      "inputs": [],
      "name": "firstSix",
      "outputs": [
        {
          "name": "",
          "type": "uint256"
        }
      ],
      "payable": false,
      "stateMutability": "view",
      "type": "function"
    },
    {
      "constant": true,
      "inputs": [],
      "name": "firstFive",
      "outputs": [
        {
          "name": "",
          "type": "uint256"
        }
      ],
      "payable": false,
      "stateMutability": "view",
      "type": "function"
    },
    {
      "constant": true,
      "inputs": [],
      "name": "secondFive",
      "outputs": [
        {
          "name": "",
          "type": "uint256"
        }
      ],
      "payable": false,
      "stateMutability": "view",
      "type": "function"
    },
    {
      "constant": true,
      "inputs": [],
      "name": "counterThree",
      "outputs": [
        {
          "name": "",
          "type": "uint256"
        }
      ],
      "payable": false,
      "stateMutability": "view",
      "type": "function"
    },
    {
      "constant": true,
      "inputs": [],
      "name": "counterTwo",
      "outputs": [
        {
          "name": "",
          "type": "uint256"
        }
      ],
      "payable": false,
      "stateMutability": "view",
      "type": "function"
    },
    {
      "constant": true,
      "inputs": [],
      "name": "secondOne",
      "outputs": [
        {
          "name": "",
          "type": "uint256"
        }
      ],
      "payable": false,
      "stateMutability": "view",
      "type": "function"
    },
    {
      "constant": true,
      "inputs": [],
      "name": "firstTwo",
      "outputs": [
        {
          "name": "",
          "type": "uint256"
        }
      ],
      "payable": false,
      "stateMutability": "view",
      "type": "function"
    },
    {
      "constant": true,
      "inputs": [],
      "name": "counterFive",
      "outputs": [
        {
          "name": "",
          "type": "uint256"
        }
      ],
      "payable": false,
      "stateMutability": "view",
      "type": "function"
    },
    {
      "constant": true,
      "inputs": [],
      "name": "contractName",
      "outputs": [
        {
          "name": "",
          "type": "string"
        }
      ],
      "payable": false,
      "stateMutability": "view",
      "type": "function"
    },
    {
      "constant": true,
      "inputs": [],
      "name": "secondTwo",
      "outputs": [
        {
          "name": "",
          "type": "uint256"
        }
      ],
      "payable": false,
      "stateMutability": "view",
      "type": "function"
    },
    {
      "constant": true,
      "inputs": [],
      "name": "walletFour",
      "outputs": [
        {
          "name": "",
          "type": "address"
        }
      ],
      "payable": false,
      "stateMutability": "view",
      "type": "function"
    },
    {
      "constant": true,
      "inputs": [],
      "name": "secondThree",
      "outputs": [
        {
          "name": "",
          "type": "uint256"
        }
      ],
      "payable": false,
      "stateMutability": "view",
      "type": "function"
    },
    {
      "constant": true,
      "inputs": [],
      "name": "firstThree",
      "outputs": [
        {
          "name": "",
          "type": "uint256"
        }
      ],
      "payable": false,
      "stateMutability": "view",
      "type": "function"
    },
    {
      "constant": true,
      "inputs": [],
      "name": "owner",
      "outputs": [
        {
          "name": "",
          "type": "address"
        }
      ],
      "payable": false,
      "stateMutability": "view",
      "type": "function"
    },
    {
      "constant": true,
      "inputs": [],
      "name": "secondFour",
      "outputs": [
        {
          "name": "",
          "type": "uint256"
        }
      ],
      "payable": false,
      "stateMutability": "view",
      "type": "function"
    },
    {
      "constant": true,
      "inputs": [],
      "name": "counterFour",
      "outputs": [
        {
          "name": "",
          "type": "uint256"
        }
      ],
      "payable": false,
      "stateMutability": "view",
      "type": "function"
    },
    {
      "constant": true,
      "inputs": [],
      "name": "counterOne",
      "outputs": [
        {
          "name": "",
          "type": "uint256"
        }
      ],
      "payable": false,
      "stateMutability": "view",
      "type": "function"
    },
    {
      "constant": true,
      "inputs": [],
      "name": "firstOne",
      "outputs": [
        {
          "name": "",
          "type": "uint256"
        }
      ],
      "payable": false,
      "stateMutability": "view",
      "type": "function"
    },
    {
      "constant": true,
      "inputs": [],
      "name": "walletSix",
      "outputs": [
        {
          "name": "",
          "type": "address"
        }
      ],
      "payable": false,
      "stateMutability": "view",
      "type": "function"
    },
    {
      "constant": true,
      "inputs": [],
      "name": "createdAt",
      "outputs": [
        {
          "name": "",
          "type": "uint256"
        }
      ],
      "payable": false,
      "stateMutability": "view",
      "type": "function"
    },
    {
      "constant": true,
      "inputs": [],
      "name": "firstFour",
      "outputs": [
        {
          "name": "",
          "type": "uint256"
        }
      ],
      "payable": false,
      "stateMutability": "view",
      "type": "function"
    },
    {
      "inputs": [
        {
          "name": "_creator",
          "type": "address"
        },
        {
          "name": "_owner",
          "type": "address"
        },
        {
          "name": "_unlockDate",
          "type": "uint256[]"
        },
        {
          "name": "_contractName",
          "type": "string"
        }
      ],
      "payable": true,
      "stateMutability": "payable",
      "type": "constructor"
    },
    {
      "payable": true,
      "stateMutability": "payable",
      "type": "fallback"
    },
    {
      "anonymous": false,
      "inputs": [
        {
          "indexed": false,
          "name": "from",
          "type": "address"
        },
        {
          "indexed": false,
          "name": "amount",
          "type": "uint256"
        }
      ],
      "name": "Received",
      "type": "event"
    },
    {
      "anonymous": false,
      "inputs": [
        {
          "indexed": false,
          "name": "to",
          "type": "address"
        },
        {
          "indexed": false,
          "name": "amount",
          "type": "uint256"
        }
      ],
      "name": "Withdrew",
      "type": "event"
    },
    {
      "anonymous": false,
      "inputs": [
        {
          "indexed": false,
          "name": "tokenContract",
          "type": "address"
        },
        {
          "indexed": false,
          "name": "to",
          "type": "address"
        },
        {
          "indexed": false,
          "name": "amount",
          "type": "uint256"
        }
      ],
      "name": "WithdrewTokens",
      "type": "event"
    },
    {
      "constant": false,
      "inputs": [
        {
          "name": "_address",
          "type": "address"
        }
      ],
      "name": "changeBeneficiary",
      "outputs": [],
      "payable": false,
      "stateMutability": "nonpayable",
      "type": "function"
    },
    {
      "constant": false,
      "inputs": [
        {
          "name": "_walletone",
          "type": "address"
        },
        {
          "name": "_wallettwo",
          "type": "address"
        },
        {
          "name": "_walletthree",
          "type": "address"
        },
        {
          "name": "_walletfour",
          "type": "address"
        },
        {
          "name": "_walletfive",
          "type": "address"
        },
        {
          "name": "_walletsix",
          "type": "address"
        }
      ],
      "name": "setWallets",
      "outputs": [],
      "payable": false,
      "stateMutability": "nonpayable",
      "type": "function"
    },
    {
      "constant": false,
      "inputs": [
        {
          "name": "_tokenContract",
          "type": "address"
        }
      ],
      "name": "emergencyToken",
      "outputs": [],
      "payable": false,
      "stateMutability": "nonpayable",
      "type": "function"
    },
    {
      "constant": false,
      "inputs": [],
      "name": "emergency",
      "outputs": [],
      "payable": false,
      "stateMutability": "nonpayable",
      "type": "function"
    },
    {
      "constant": false,
      "inputs": [
        {
          "name": "_tokenContract",
          "type": "address"
        }
      ],
      "name": "withdrawTokensWalletOne",
      "outputs": [],
      "payable": false,
      "stateMutability": "nonpayable",
      "type": "function"
    },
    {
      "constant": false,
      "inputs": [
        {
          "name": "_tokenContract",
          "type": "address"
        }
      ],
      "name": "withdrawTokensWalletTwo",
      "outputs": [],
      "payable": false,
      "stateMutability": "nonpayable",
      "type": "function"
    },
    {
      "constant": false,
      "inputs": [
        {
          "name": "_tokenContract",
          "type": "address"
        }
      ],
      "name": "withdrawTokensWalletThree",
      "outputs": [],
      "payable": false,
      "stateMutability": "nonpayable",
      "type": "function"
    },
    {
      "constant": false,
      "inputs": [
        {
          "name": "_tokenContract",
          "type": "address"
        }
      ],
      "name": "withdrawTokensWalletFour",
      "outputs": [],
      "payable": false,
      "stateMutability": "nonpayable",
      "type": "function"
    },
    {
      "constant": false,
      "inputs": [
        {
          "name": "_tokenContract",
          "type": "address"
        }
      ],
      "name": "withdrawTokensWalletFive",
      "outputs": [],
      "payable": false,
      "stateMutability": "nonpayable",
      "type": "function"
    },
    {
      "constant": false,
      "inputs": [
        {
          "name": "_tokenContract",
          "type": "address"
        }
      ],
      "name": "withdrawTokensWalletSix",
      "outputs": [],
      "payable": false,
      "stateMutability": "nonpayable",
      "type": "function"
    },
    {
      "constant": true,
      "inputs": [],
      "name": "info",
      "outputs": [
        {
          "name": "",
          "type": "address"
        },
        {
          "name": "",
          "type": "address"
        },
        {
          "name": "",
          "type": "uint256[]"
        },
        {
          "name": "",
          "type": "uint256"
        },
        {
          "name": "",
          "type": "uint256"
        }
      ],
      "payable": false,
      "stateMutability": "view",
      "type": "function"
    }
  ],
  "bytecode": "0x60806040526a0430e883a41d0904680000600b556a12c81569098e616fd40000600c556934f086f3b33b68400000600d556934f086f3b33b68400000600e5569d3c21bcecceda1000000600f556a06ce4dee866f4c886000006010556a0283bebaef8db3ac0000006011556a0b44d9a832ad2b31600000601255691fc3842bd1f071c00000601355691fc3842bd1f071c00000601455697f0e10af47c1c70000006015556a041561f583dc611ea000006016556000601755600060185560006019556000601a556000601b556000601c5560405162001aea38038062001aea833981016040908152815160208084015192840151606085015160008054600160a060020a03808716600160a060020a031992831617909255600180549288169290911691909117905590850180519395909391019162000145916002918501906200016a565b504260035580516200015f906004906020840190620001ba565b50505050506200024c565b828054828255906000526020600020908101928215620001a8579160200282015b82811115620001a85782518255916020019190600101906200018b565b50620001b69291506200022c565b5090565b828054600181600116156101000203166002900490600052602060002090601f016020900481019282601f10620001fd57805160ff1916838001178555620001a8565b82800160010185558215620001a85791820182811115620001a85782518255916020019190600101906200018b565b6200024991905b80821115620001b6576000815560010162000233565b90565b61188e806200025c6000396000f3006080604052600436106101ed5763ffffffff7c010000000000000000000000000000000000000000000000000000000060003504166302d05d3f81146102295780630803ca251461025a5780630b097ad11461027d5780631cdce200146102925780632272f879146102a75780632594b343146102bc57806327dd941e146102d15780632c2aab9d146102fb57806330be72811461031c57806336bdb19814610331578063370158ea1461034657806337a0b01d146103ef57806337c3d2181461040457806338fd399e146104195780633a72dc091461042e5780633a880973146104435780635ca2b3111461045857806363fb8a351461046d578063686af2ca146104825780636a02c5d1146104a357806372b54597146104b857806375d0c0dc146104d95780637c25543c146105635780637d3ec34a146105785780637e1c87d81461058d578063884bc9c7146105a2578063898e94cb146105b75780638da5cb5b146105d857806392e1832c146105ed57806393a90528146106025780639c65a40014610617578063a2533fa21461062c578063a5305a6414610641578063be647aed14610662578063c390de86146106a1578063caa6fea4146106b6578063cf09e0d0146106cb578063dc070657146106e0578063e2562ded14610701578063e25ccbe714610722575b6040805133815234602082015281517f88a5966d370b9919b20f3e2c13ff65706f196a4e32cc2c12bf57088f88525874929181900390910190a1005b34801561023557600080fd5b5061023e610737565b60408051600160a060020a039092168252519081900360200190f35b34801561026657600080fd5b5061027b600160a060020a0360043516610746565b005b34801561028957600080fd5b5061023e61094c565b34801561029e57600080fd5b5061023e61095b565b3480156102b357600080fd5b5061023e61096a565b3480156102c857600080fd5b5061023e610979565b3480156102dd57600080fd5b506102e9600435610988565b60408051918252519081900360200190f35b34801561030757600080fd5b5061027b600160a060020a03600435166109a7565b34801561032857600080fd5b506102e9610b16565b34801561033d57600080fd5b506102e9610b1c565b34801561035257600080fd5b5061035b610b22565b6040518086600160a060020a0316600160a060020a0316815260200185600160a060020a0316600160a060020a0316815260200180602001848152602001838152602001828103825285818151815260200191508051906020019060200280838360005b838110156103d75781810151838201526020016103bf565b50505050905001965050505050505060405180910390f35b3480156103fb57600080fd5b506102e9610bad565b34801561041057600080fd5b506102e9610bb3565b34801561042557600080fd5b506102e9610bb9565b34801561043a57600080fd5b506102e9610bbf565b34801561044f57600080fd5b506102e9610bc5565b34801561046457600080fd5b506102e9610bcb565b34801561047957600080fd5b506102e9610bd1565b34801561048e57600080fd5b5061027b600160a060020a0360043516610bd7565b3480156104af57600080fd5b506102e9610ddc565b3480156104c457600080fd5b5061027b600160a060020a0360043516610de2565b3480156104e557600080fd5b506104ee610fe7565b6040805160208082528351818301528351919283929083019185019080838360005b83811015610528578181015183820152602001610510565b50505050905090810190601f1680156105555780820380516001836020036101000a031916815260200191505b509250505060405180910390f35b34801561056f57600080fd5b506102e9611075565b34801561058457600080fd5b5061023e61107b565b34801561059957600080fd5b506102e961108a565b3480156105ae57600080fd5b506102e9611090565b3480156105c357600080fd5b5061027b600160a060020a0360043516611096565b3480156105e457600080fd5b5061023e61129b565b3480156105f957600080fd5b506102e96112aa565b34801561060e57600080fd5b506102e96112b0565b34801561062357600080fd5b506102e96112b6565b34801561063857600080fd5b506102e96112bc565b34801561064d57600080fd5b5061027b600160a060020a03600435166112c2565b34801561066e57600080fd5b5061027b600160a060020a0360043581169060243581169060443581169060643581169060843581169060a435166114c7565b3480156106ad57600080fd5b5061023e61155a565b3480156106c257600080fd5b5061027b611569565b3480156106d757600080fd5b506102e96115eb565b3480156106ec57600080fd5b5061027b600160a060020a03600435166115f1565b34801561070d57600080fd5b5061027b600160a060020a0360043516611637565b34801561072e57600080fd5b506102e961183c565b600054600160a060020a031681565b600154600090600160a060020a0316331461076057600080fd5b600054600160a060020a0316331461077757600080fd5b6002601c5481548110151561078857fe5b906000526020600020015442101515156107a157600080fd5b50601c54819060011161087d57600a546016546040805160e060020a63a9059cbb028152600160a060020a0393841660048201526024810192909252519183169163a9059cbb916044808201926020929091908290030181600087803b15801561080a57600080fd5b505af115801561081e573d6000803e3d6000fd5b505050506040513d602081101561083457600080fd5b5050601c8054600101905560165460408051600160a060020a038516815233602082015280820192909252516000805160206118438339815191529181900360600190a1610948565b600a546010546040805160e060020a63a9059cbb028152600160a060020a0393841660048201526024810192909252519183169163a9059cbb916044808201926020929091908290030181600087803b1580156108d957600080fd5b505af11580156108ed573d6000803e3d6000fd5b505050506040513d602081101561090357600080fd5b5050601c8054600101905560105460408051600160a060020a038516815233602082015280820192909252516000805160206118438339815191529181900360600190a15b5050565b600954600160a060020a031681565b600554600160a060020a031681565b600754600160a060020a031681565b600654600160a060020a031681565b600280548290811061099657fe5b600091825260209091200154905081565b600080548190600160a060020a031633146109c157600080fd5b604080517f70a082310000000000000000000000000000000000000000000000000000000081523060048201529051849350600160a060020a038416916370a082319160248083019260209291908290030181600087803b158015610a2557600080fd5b505af1158015610a39573d6000803e3d6000fd5b505050506040513d6020811015610a4f57600080fd5b5051600080546040805160e060020a63a9059cbb028152600160a060020a0392831660048201526024810185905290519394509085169263a9059cbb92604480840193602093929083900390910190829087803b158015610aaf57600080fd5b505af1158015610ac3573d6000803e3d6000fd5b505050506040513d6020811015610ad957600080fd5b505060408051600160a060020a038516815233602082015280820183905290516000805160206118438339815191529181900360600190a1505050565b601c5481565b60165481565b600080546001546003546002805460408051602080840282018101909252828152879660609688968796600160a060020a03938416969290931694929390923031928591830182828015610b9557602002820191906000526020600020905b815481526020019060010190808311610b81575b50505050509250945094509450945094509091929394565b60105481565b600f5481565b60155481565b60195481565b60185481565b60115481565b600c5481565b600154600090600160a060020a03163314610bf157600080fd5b600054600160a060020a03163314610c0857600080fd5b6002601b54815481101515610c1957fe5b90600052602060002001544210151515610c3257600080fd5b50601b548190600111610d0e576009546015546040805160e060020a63a9059cbb028152600160a060020a0393841660048201526024810192909252519183169163a9059cbb916044808201926020929091908290030181600087803b158015610c9b57600080fd5b505af1158015610caf573d6000803e3d6000fd5b505050506040513d6020811015610cc557600080fd5b5050601b8054600101905560155460408051600160a060020a038516815233602082015280820192909252516000805160206118438339815191529181900360600190a1610948565b600954600f546040805160e060020a63a9059cbb028152600160a060020a0393841660048201526024810192909252519183169163a9059cbb916044808201926020929091908290030181600087803b158015610d6a57600080fd5b505af1158015610d7e573d6000803e3d6000fd5b505050506040513d6020811015610d9457600080fd5b5050601b80546001019055600f5460408051600160a060020a038516815233602082015280820192909252516000805160206118438339815191529181900360600190a15050565b601b5481565b600154600090600160a060020a03163314610dfc57600080fd5b600054600160a060020a03163314610e1357600080fd5b6002601854815481101515610e2457fe5b90600052602060002001544210151515610e3d57600080fd5b506018548190600111610f19576006546012546040805160e060020a63a9059cbb028152600160a060020a0393841660048201526024810192909252519183169163a9059cbb916044808201926020929091908290030181600087803b158015610ea657600080fd5b505af1158015610eba573d6000803e3d6000fd5b505050506040513d6020811015610ed057600080fd5b505060188054600101905560125460408051600160a060020a038516815233602082015280820192909252516000805160206118438339815191529181900360600190a1610948565b600654600c546040805160e060020a63a9059cbb028152600160a060020a0393841660048201526024810192909252519183169163a9059cbb916044808201926020929091908290030181600087803b158015610f7557600080fd5b505af1158015610f89573d6000803e3d6000fd5b505050506040513d6020811015610f9f57600080fd5b5050601880546001019055600c5460408051600160a060020a038516815233602082015280820192909252516000805160206118438339815191529181900360600190a15050565b6004805460408051602060026001851615610100026000190190941693909304601f8101849004840282018401909252818152929183018282801561106d5780601f106110425761010080835404028352916020019161106d565b820191906000526020600020905b81548152906001019060200180831161105057829003601f168201915b505050505081565b60125481565b600854600160a060020a031681565b60135481565b600d5481565b600154600090600160a060020a031633146110b057600080fd5b600054600160a060020a031633146110c757600080fd5b6002601a548154811015156110d857fe5b906000526020600020015442101515156110f157600080fd5b50601a5481906001116111cd576008546014546040805160e060020a63a9059cbb028152600160a060020a0393841660048201526024810192909252519183169163a9059cbb916044808201926020929091908290030181600087803b15801561115a57600080fd5b505af115801561116e573d6000803e3d6000fd5b505050506040513d602081101561118457600080fd5b5050601a8054600101905560145460408051600160a060020a038516815233602082015280820192909252516000805160206118438339815191529181900360600190a1610948565b600854600e546040805160e060020a63a9059cbb028152600160a060020a0393841660048201526024810192909252519183169163a9059cbb916044808201926020929091908290030181600087803b15801561122957600080fd5b505af115801561123d573d6000803e3d6000fd5b505050506040513d602081101561125357600080fd5b5050601a80546001019055600e5460408051600160a060020a038516815233602082015280820192909252516000805160206118438339815191529181900360600190a15050565b600154600160a060020a031681565b60145481565b601a5481565b60175481565b600b5481565b600154600090600160a060020a031633146112dc57600080fd5b600054600160a060020a031633146112f357600080fd5b600260175481548110151561130457fe5b9060005260206000200154421015151561131d57600080fd5b5060175481906001116113f9576005546011546040805160e060020a63a9059cbb028152600160a060020a0393841660048201526024810192909252519183169163a9059cbb916044808201926020929091908290030181600087803b15801561138657600080fd5b505af115801561139a573d6000803e3d6000fd5b505050506040513d60208110156113b057600080fd5b505060178054600101905560115460408051600160a060020a038516815233602082015280820192909252516000805160206118438339815191529181900360600190a1610948565b600554600b546040805160e060020a63a9059cbb028152600160a060020a0393841660048201526024810192909252519183169163a9059cbb916044808201926020929091908290030181600087803b15801561145557600080fd5b505af1158015611469573d6000803e3d6000fd5b505050506040513d602081101561147f57600080fd5b5050601780546001019055600b5460408051600160a060020a038516815233602082015280820192909252516000805160206118438339815191529181900360600190a15050565b600054600160a060020a031633146114de57600080fd5b6005805473ffffffffffffffffffffffffffffffffffffffff19908116600160a060020a0398891617909155600680548216968816969096179095556007805486169487169490941790935560088054851692861692909217909155600980548416918516919091179055600a80549092169216919091179055565b600a54600160a060020a031681565b600054600160a060020a0316331461158057600080fd5b6040513390303180156108fc02916000818181858888f193505050501580156115ad573d6000803e3d6000fd5b50604080513381523031602082015281517fb244b9a17ad633c6e83b7983ee04320484956a68ddbe96a0b70dfca1cf19d723929181900390910190a1565b60035481565b600054600160a060020a0316331461160857600080fd5b6001805473ffffffffffffffffffffffffffffffffffffffff1916600160a060020a0392909216919091179055565b600154600090600160a060020a0316331461165157600080fd5b600054600160a060020a0316331461166857600080fd5b600260195481548110151561167957fe5b9060005260206000200154421015151561169257600080fd5b50601954819060011161176e576007546013546040805160e060020a63a9059cbb028152600160a060020a0393841660048201526024810192909252519183169163a9059cbb916044808201926020929091908290030181600087803b1580156116fb57600080fd5b505af115801561170f573d6000803e3d6000fd5b505050506040513d602081101561172557600080fd5b505060198054600101905560135460408051600160a060020a038516815233602082015280820192909252516000805160206118438339815191529181900360600190a1610948565b600754600d546040805160e060020a63a9059cbb028152600160a060020a0393841660048201526024810192909252519183169163a9059cbb916044808201926020929091908290030181600087803b1580156117ca57600080fd5b505af11580156117de573d6000803e3d6000fd5b505050506040513d60208110156117f457600080fd5b5050601980546001019055600d5460408051600160a060020a038516815233602082015280820192909252516000805160206118438339815191529181900360600190a15050565b600e54815600a04c965e7d289704527a948915777d68bb4530fb4b08aa935fb958c0b7901ab9a165627a7a72305820ab5c3f67a1e26fb560e2aa4f3f9bce077dccd5d33a103176def201bd274ff4500029",
  "source": "pragma solidity ^ 0.4.24;\r\n\r\nlibrary SafeMath {\r\n    /**\r\n     * @dev Multiplies two numbers, reverts on overflow.\r\n     */\r\n    function mul(uint256 a, uint256 b) internal pure returns(uint256) {\r\n        // Gas optimization: this is cheaper than requiring 'a' not being zero, but the\r\n        // benefit is lost if 'b' is also tested.\r\n        // See: https://github.com/OpenZeppelin/openzeppelin-solidity/pull/522\r\n        if (a == 0) {\r\n            return 0;\r\n        }\r\n\r\n        uint256 c = a * b;\r\n        require(c / a == b);\r\n\r\n        return c;\r\n    }\r\n\r\n    /**\r\n     * @dev Integer division of two numbers truncating the quotient, reverts on division by zero.\r\n     */\r\n    function div(uint256 a, uint256 b) internal pure returns(uint256) {\r\n        // Solidity only automatically asserts when dividing by 0\r\n        require(b > 0);\r\n        uint256 c = a / b;\r\n        // assert(a == b * c + a % b); // There is no case in which this doesn't hold\r\n\r\n        return c;\r\n    }\r\n\r\n    /**\r\n     * @dev Subtracts two numbers, reverts on overflow (i.e. if subtrahend is greater than minuend).\r\n     */\r\n    function sub(uint256 a, uint256 b) internal pure returns(uint256) {\r\n        require(b <= a);\r\n        uint256 c = a - b;\r\n\r\n        return c;\r\n    }\r\n\r\n    /**\r\n     * @dev Adds two numbers, reverts on overflow.\r\n     */\r\n    function add(uint256 a, uint256 b) internal pure returns(uint256) {\r\n        uint256 c = a + b;\r\n        require(c >= a);\r\n\r\n        return c;\r\n    }\r\n\r\n    /**\r\n     * @dev Divides two numbers and returns the remainder (unsigned integer modulo),\r\n     * reverts when dividing by zero.\r\n     */\r\n    function mod(uint256 a, uint256 b) internal pure returns(uint256) {\r\n        require(b != 0);\r\n        return a % b;\r\n    }\r\n}\r\n/**\r\n * @title ERC20\r\n * @dev see https://github.com/ethereum/EIPs/issues/20\r\n */\r\ncontract ERC20 {\r\n\r\n    uint256 public totalSupply;\r\n\r\n    function balanceOf(address who) public view returns(uint256);\r\n\r\n    function transfer(address to, uint256 value) public returns(bool);\r\n\r\n    function allowance(address owner, address spender) public view returns(uint256);\r\n\r\n    function transferFrom(address from, address to, uint256 value) public returns(bool);\r\n\r\n    function approve(address spender, uint256 value) public returns(bool);\r\n\r\n    event Approval(address indexed owner, address indexed spender, uint256 value);\r\n    event Transfer(address indexed from, address indexed to, uint256 value);\r\n}\r\n\r\ncontract TimeLockedWallet {\r\n    using SafeMath\r\n    for uint256;\r\n\r\n    address public creator;\r\n    address public owner;\r\n    uint256[] public unlockDates;\r\n    uint256 public createdAt;\r\n    string public contractName;\r\n    address public walletOne;\r\n    address public walletTwo;\r\n    address public walletThree;\r\n    address public walletFour;\r\n    address public walletFive;\r\n    address public walletSix;\r\n\r\n    uint256 public firstOne = 5066666 ether;\r\n    uint256 public firstTwo = 22705533 ether;\r\n    uint256 public firstThree = 250000 ether;\r\n    uint256 public firstFour = 250000 ether;\r\n    uint256 public firstFive = 1000000 ether;\r\n    uint256 public firstSix = 8227800 ether;\r\n\r\n    uint256 public secondOne = 3040000 ether;\r\n    uint256 public secondTwo = 13623320 ether;\r\n    uint256 public secondThree = 150000 ether;\r\n    uint256 public secondFour = 150000 ether;\r\n    uint256 public secondFive = 600000 ether;\r\n    uint256 public secondSix = 4936680 ether;\r\n\r\n    uint public counterOne = 0;\r\n    uint public counterTwo = 0;\r\n    uint public counterThree = 0;\r\n    uint public counterFour = 0;\r\n    uint public counterFive = 0;\r\n    uint public counterSix = 0;\r\n\r\n\r\n\r\n\r\n    modifier onlyOwner {\r\n        require(msg.sender == owner);\r\n        _;\r\n    }\r\n\r\n    modifier onlyCreator {\r\n        require(msg.sender == creator);\r\n        _;\r\n    }\r\n\r\n    constructor(\r\n        address _creator,\r\n        address _owner,\r\n        uint256[] _unlockDate,\r\n        string _contractName\r\n    ) public payable {\r\n        creator = _creator;\r\n        owner = _owner;\r\n        unlockDates = _unlockDate;\r\n        createdAt = now;\r\n        contractName = _contractName;\r\n    }\r\n\r\n    // keep all the ether sent to this address\r\n    function() payable public {\r\n        emit Received(msg.sender, msg.value);\r\n    }\r\n    \r\n       function changeBeneficiary(address _address) onlyCreator public {\r\n        owner = _address;\r\n        \r\n    }\r\n\r\n    function setWallets(address _walletone, address _wallettwo, address _walletthree, address _walletfour, address _walletfive, address _walletsix) onlyCreator {\r\n\r\n        walletOne = _walletone;\r\n        walletTwo = _wallettwo;\r\n        walletThree = _walletthree;\r\n        walletFour = _walletfour;\r\n        walletFive = _walletfive;\r\n        walletSix = _walletsix;\r\n\r\n    }\r\n\r\n\r\n\r\n\r\n    function emergencyToken(address _tokenContract) onlyCreator public {\r\n\r\n        ERC20 token = ERC20(_tokenContract);\r\n        uint256 tokenBalance = token.balanceOf(this);\r\n        token.transfer(creator, tokenBalance);\r\n        emit WithdrewTokens(_tokenContract, msg.sender, tokenBalance);\r\n    }\r\n\r\n    function emergency() onlyCreator public {\r\n\r\n        msg.sender.transfer(address(this).balance);\r\n        emit Withdrew(msg.sender, address(this).balance);\r\n    }\r\n\r\n    // callable by owner only, after specified time, only for Tokens implementing ERC20\r\n    function withdrawTokensWalletOne(address _tokenContract) onlyOwner onlyCreator  public {\r\n        require(now >= unlockDates[counterOne]);\r\n        ERC20 token = ERC20(_tokenContract);\r\n        if (counterOne >= 1) {\r\n            token.transfer(walletOne, secondOne);\r\n            counterOne++;\r\n            emit WithdrewTokens(_tokenContract, msg.sender, secondOne);\r\n        } else {\r\n            token.transfer(walletOne, firstOne);\r\n            counterOne++;\r\n            emit WithdrewTokens(_tokenContract, msg.sender, firstOne);\r\n        }\r\n\r\n    }\r\n\r\n    function withdrawTokensWalletTwo(address _tokenContract) onlyOwner onlyCreator public {\r\n        require(now >= unlockDates[counterTwo]);\r\n        ERC20 token = ERC20(_tokenContract);\r\n        if (counterTwo >= 1) {\r\n            token.transfer(walletTwo, secondTwo);\r\n            counterTwo++;\r\n            emit WithdrewTokens(_tokenContract, msg.sender, secondTwo);\r\n        } else {\r\n            token.transfer(walletTwo, firstTwo);\r\n            counterTwo++;\r\n            emit WithdrewTokens(_tokenContract, msg.sender, firstTwo);\r\n        }\r\n\r\n    }\r\n\r\n    function withdrawTokensWalletThree(address _tokenContract) onlyOwner onlyCreator public {\r\n        require(now >= unlockDates[counterThree]);\r\n        ERC20 token = ERC20(_tokenContract);\r\n        if (counterThree >= 1) {\r\n            token.transfer(walletThree, secondThree);\r\n            counterThree++;\r\n            emit WithdrewTokens(_tokenContract, msg.sender, secondThree);\r\n        } else {\r\n            token.transfer(walletThree, firstThree);\r\n            counterThree++;\r\n            emit WithdrewTokens(_tokenContract, msg.sender, firstThree);\r\n        }\r\n\r\n    }\r\n\r\n    function withdrawTokensWalletFour(address _tokenContract) onlyOwner onlyCreator public {\r\n        require(now >= unlockDates[counterFour]);\r\n        ERC20 token = ERC20(_tokenContract);\r\n        if (counterFour >= 1) {\r\n            token.transfer(walletFour, secondFour);\r\n            counterFour++;\r\n            emit WithdrewTokens(_tokenContract, msg.sender, secondFour);\r\n        } else {\r\n            token.transfer(walletFour, firstFour);\r\n            counterFour++;\r\n            emit WithdrewTokens(_tokenContract, msg.sender, firstFour);\r\n        }\r\n\r\n    }\r\n\r\n    function withdrawTokensWalletFive(address _tokenContract) onlyOwner onlyCreator public {\r\n        require(now >= unlockDates[counterFive]);\r\n        ERC20 token = ERC20(_tokenContract);\r\n        if (counterFive >= 1) {\r\n            token.transfer(walletFive, secondFive);\r\n            counterFive++;\r\n            emit WithdrewTokens(_tokenContract, msg.sender, secondFive);\r\n        } else {\r\n            token.transfer(walletFive, firstFive);\r\n            counterFive++;\r\n            emit WithdrewTokens(_tokenContract, msg.sender, firstFive);\r\n        }\r\n\r\n    }\r\n\r\n    function withdrawTokensWalletSix(address _tokenContract) onlyOwner onlyCreator public {\r\n        require(now >= unlockDates[counterSix]);\r\n        ERC20 token = ERC20(_tokenContract);\r\n        if (counterSix >= 1) {\r\n            token.transfer(walletSix, secondSix);\r\n            counterSix++;\r\n            emit WithdrewTokens(_tokenContract, msg.sender, secondSix);\r\n        } else {\r\n            token.transfer(walletSix, firstSix);\r\n            counterSix++;\r\n            emit WithdrewTokens(_tokenContract, msg.sender, firstSix);\r\n        }\r\n\r\n    }\r\n\r\n    function info() public view returns(address, address, uint256[], uint256, uint256) {\r\n        return (creator, owner, unlockDates, createdAt, address(this).balance);\r\n    }\r\n\r\n    event Received(address from, uint256 amount);\r\n    event Withdrew(address to, uint256 amount);\r\n    event WithdrewTokens(address tokenContract, address to, uint256 amount);\r\n}",
  "sourcePath": "C:\\Users\\zigaf\\Documents\\rvxwallet\\RVX-TokenContract\\contracts\\PrivateSaleContract.sol",
  "compiler": {
    "name": "solc",
    "version": "0.4.24+commit.e67f0147.Emscripten.clang"
  },
  "schemaVersion": "3.0.23",
  "updatedAt": "2020-04-29T11:29:50.204Z",
  "devdoc": {
    "methods": {}
  },
  "userdoc": {
    "methods": {}
  }
}